:1000000018F09FE518F09FE518F09FE518F09FE5C0
:1000100018F09FE5606FA0B814F09FE514F09FE51D
:10002000DC00000084020000840200008402000062
:1000300084020000840200008402000084020000A8
:1000400080B500F015F81D48006801004904C90F8B
:100050000029F8D100F01FF800F001F8F3E700B52F
:10006000002000E0401C16498842FBDB08BC184712
:10007000144801680322914301600168124A0A4052
:1000800002601248016801220A4302600168104AB6
:100090000A400260704700B5012008490968014024
:1000A000002904D10B490A681043086003E00A499B
:1000B0000A681043086008BC18470000008002E08E
:1000C000204E000000C002E0FFFFFFCF088002E0EA
:1000D000FFBFFFFF048002E00C8002E000000FE1A0
:1000E0001F00C0E3120080E300F021E134109FE51F
:1000F00007D0C1E31F00C0E3110080E300F021E15D
:1001000024109FE507D0C1E31F00C0E31F0080E378
:1001100000F021E114109FE507D0C1E30000A0E149
:100120000000A0E13E0000EA7009004080090040A4
:10013000200900400120704708B4024B9C4608BCCF
:100140006047C0467402000080B5FFF7F5FF09BCA8
:0201500018474E
:1002000000C09FE51CFF2FE13501000000C09FE505
:100210001CFF2FE14100000000C09FE51CFF2FE103
:10022000490100000100A0E3F4FFFFEB000050E3F0
:100230000000000A0000A0E10000A0E10000A0E32F
:100240000000A0E1F0FFFFEBF2FFFFEB000000EB8E
:10025000FDFFFFEA00502DE90000A0E12630A0E3F9
:10026000803B83E30310A0E11800A0E3563412EFB3
:10027000FBFFFFEA0070B0E10700B0E1F4FFFFEB25
:0C028000FDFFFFEAFEFFFFEA0EF0B0E118
:04000005000000DC1B
:00000001FF
